:020000040800F2
:10000000000003202D0F0008C50E0008C70E0008D1
:10001000C90E0008CB0E0008CD0E0008000000003D
:10002000000000000000000000000000CF0E0008EB
:10003000D10E000800000000D30E0008D50E000805
:100040007D0F00087D0F00087D0F00087D0F000860
:100050007D0F00087D0F00087D0F00087D0F000850
:100060007D0F00087D0F00087D0F00087D0F000840
:100070007D0F00087D0F00087D0F00087D0F000830
:100080007D0F00087D0F00087D0F00087D0F000820
:100090007D0F00087D0F00087D0F00087D0F000810
:1000A0007D0F00087D0F00087D0F00087D0F000800
:1000B0007D0F00087D0F00087D0F00087D0F0008F0
:1000C0007D0F00087D0F00087D0F00087D0F0008E0
:1000D0007D0F00087D0F00087D0F00087D0F0008D0
:1000E0007D0F00087D0F00087D0F00087D0F0008C0
:1000F0007D0F00087D0F00087D0F00087D0F0008B0
:100100007D0F00087D0F00087D0F00087D0F00089F
:100110007D0F00087D0F00087D0F00087D0F00088F
:100120007D0F00087D0F00087D0F00087D0F00087F
:100130007D0F00087D0F00087D0F00087D0F00086F
:100140007D0F00087D0F00087D0F00087D0F00085F
:100150007D0F00087D0F00087D0F00087D0F00084F
:100160007D0F00087D0F00087D0F00087D0F00083F
:100170007D0F00087D0F00087D0F000800000000C3
:100180007D0F00087D0F00087D0F00087D0F00081F
:100190007D0F00087D0F00087D0F00087D0F00080F
:0C01A0007D0F00087D0F00087D0F000897
:1001AC0010B5054C237833B9044B13B10448AFF3A5
:1001BC0000800123237010BD3C00002000000000D3
:1001CC00C80F000808B5034B1BB103490348AFF334
:1001DC00008008BD0000000040000020C80F00088F
:1001EC0053B94AB9002908BF00281CBF4FF0FF3192
:1001FC004FF0FF3000F072B9ADF1080C6DE904CE90
:10020C0000F006F8DDF804E0DDE9022304B07047E5
:10021C002DE9F047089E04468846002B4BD18A42B4
:10022C00154667D9B2FA82F24AB1C2F1200701FA37
:10023C0002F320FA07F7954047EA030894404FEA87
:10024C00154E230CB8FBFEF71FFA85FC0EFB178826
:10025C0043EA084307FB0CF1994209D9EB1807F163
:10026C00FF3080F01B81994240F21881023F2B44F1
:10027C005B1AA4B2B3FBFEF00EFB103344EA03444A
:10028C0000FB0CFCA44509D92C1900F1FF3380F0BC
:10029C000781A44540F2048102382C4440EA07400F
:1002AC00A4EB0C0400271EB1D4400023C6E9004384
:1002BC003946BDE8F0878B4209D9002E00F0EB805F
:1002CC000027C6E9000138463946BDE8F087B3FA85
:1002DC0083F7002F47D18B4202D3824200F2FA807F
:1002EC00841A61EB030301209846002EE0D0C6E986
:1002FC000048DDE702B9FFDEB2FA82F2002A40F0D4
:10030C008F80491B4FEA154E1FFA85F80127B1FB68
:10031C00FEFC230C0EFB1C1143EA014308FB0CF101
:10032C00994207D9EB180CF1FF3002D2994200F236
:10033C00CD808446591AA3B2B1FBFEF00EFB10140B
:10034C0043EA044408FB00F8A04507D92C1900F136
:10035C00FF3302D2A04500F2B6801846A4EB080485
:10036C0040EA0C409FE7C7F1200CBB4022FA0CFE80
:10037C004EEA030E01FA07F420FA0CF521FA0CF3FD
:10038C004FEA1E482543B3FBF8F92C0C08FB193334
:10039C001FFA8EFA44EA034309FB0AF49C4202FA60
:1003AC0007F200FA07F10BD91EEB030309F1FF303A
:1003BC0080F087809C4240F28480A9F1020973444A
:1003CC001B1BADB2B3FBF8F008FB103345EA03443A
:1003DC0000FB0AFAA24508D91EEB040400F1FF3316
:1003EC006BD2A24569D90238744440EA0940A0FB9B
:1003FC000289A4EB0A044C45C2464B4654D351D057
:10040C00002E69D0B1EB0A0564EB030404FA0CFC72
:10041C00FD40FC404CEA0505C6E90054002747E7BF
:10042C00C2F1200320FA03F7954001FA02F021FAF9
:10043C0003F34FEA154E3843010CB3FBFEF71FFADA
:10044C0085F80EFB173341EA034107FB08F38B4297
:10045C0004FA02F407D9691807F1FF3C2FD28B423A
:10046C002DD9023F2944CB1A81B2B3FBFEF00EFB0F
:10047C00103341EA034100FB08F38B4207D969189A
:10048C0000F1FF3C17D28B4215D902382944C91A06
:10049C0040EA07473BE73746304609E70746E7E6B9
:1004AC001846FBE64145ABD2B8EB020A69EB0E02EB
:1004BC0001381346A4E76046E9E7184695E7674616
:1004CC00D1E781467CE702382C4447E7ACF1020CBB
:1004DC002B442FE7384608E73746E9E6704700BF5C
:1004EC0010B504460E4B18784FF47A73B3FBF0F347
:1004FC000C4A1068B0FBF3F000F088F868B90F2CC8
:10050C0001D901200AE0002221464FF0FF3000F013
:10051C0049F8034B5C60002000E0012010BD00BFD7
:10052C00000000203800002008B50B4B1A6842F47C
:10053C0000721A601A6842F480621A601A6842F4F7
:10054C0080721A60032000F01BF80020FFF7C8FF30
:10055C0000F068FC002008BD003C0240034A116812
:10056C00034B1B780B441360704700BF58000020EE
:10057C0000000020014B1868704700BF5800002095
:10058C00074AD36823F4E0631B041B0C000200F43D
:10059C00E060184340F0BF6040F40030D06070471A
:1005AC0000ED00E030B4174BDB68C3F30223C3F15A
:1005BC000704042C28BF04241D1D062D18D9033B49
:1005CC004FF0FF3505FA04F421EA0401994005FACD
:1005DC0003F322EA0303194300280BDB0901C9B218
:1005EC0000F1604000F5614080F8001330BC7047AA
:1005FC000023E5E700F00F000901C9B2024B1954C2
:10060C00F4E700BF00ED00E014ED00E00138B0F1BC
:10061C00807F0AD2064B5860064AF02182F82310DC
:10062C000020986007221A6070470120704700BFB5
:10063C0010E000E000ED00E0042805D0054A136846
:10064C0023F0040313607047024A136843F0040359
:10065C001360704710E000E0704708B5FFF7FCFF2F
:10066C0008BD0000002800F0BB8170B582B00446C4
:10067C00036813F0010F3BD0A74B9B6803F00C03EE
:10068C00042B2CD0A44B9B6803F00C03082B21D01B
:10069C006368B3F5803F4FD0B3F5A02F52D09E4B7B
:1006AC001A6822F480321A601A6822F480221A60C6
:1006BC006368002B50D0FFF75DFF0546964B1B6817
:1006CC0013F4003F14D1FFF755FF401B6428F5D9F4
:1006DC0003208AE1904B5B6813F4800FD8D08E4BCB
:1006EC001B6813F4003F03D06368002B00F07A8181
:1006FC00236813F0020F55D0874B9B6813F00C0F37
:10070C003ED0854B9B6803F00C03082B33D0E36879
:10071C00002B68D0814B01221A60FFF72BFF054696
:10072C007D4B1B6813F0020F54D1FFF723FF401BC6
:10073C000228F5D9032058E1774A136843F4803333
:10074C001360B5E7744B1A6842F480221A601A6879
:10075C0042F480321A60ABE7FFF70CFF05466E4B94
:10076C001B6813F4003FC3D0FFF704FF401B642841
:10077C00F5D9032039E1684B5B6813F4800FC6D1BF
:10078C00654B1B6813F0020F04D0E368012B01D0FA
:10079C0001202AE1604A136823F0F803216943EA37
:1007AC00C1031360236813F0080F40D0636963B36F
:1007BC005B4B01221A60FFF7DDFE0546564B5B6F63
:1007CC0013F0020F33D1FFF7D5FE401B0228F5D9E9
:1007DC0003200AE1504A136823F0F803216943EA25
:1007EC00C1031360DEE74D4B00221A60FFF7C2FE17
:1007FC000546494B1B6813F0020FD3D0FFF7BAFE26
:10080C00401B0228F5D90320EFE0454B00221A606B
:10081C00FFF7B0FE0546404B5B6F13F0020F06D09E
:10082C00FFF7A8FE401B0228F5D90320DDE0236862
:10083C0013F0040F79D0384B1B6C13F0805F33D15D
:10084C0000230193344B1A6C42F080521A641B6CD7
:10085C0003F080530193019B0125324B1B6813F469
:10086C00807F23D0A368012B34D0052B38D02A4BA2
:10087C001A6F22F001021A671A6F22F004021A672B
:10088C00A368002B36D0FFF775FE0646224B1B6F74
:10089C0013F0020F48D1FFF76DFE801B41F2883335
:1008AC009842F3D90320A0E00025D6E71D4A13682F
:1008BC0043F480731360FFF75DFE0646194B1B680B
:1008CC0013F4807FCED1FFF755FE801B0228F5D99B
:1008DC0003208AE0104A136F43F001031367CFE73C
:1008EC000D4B1A6F42F004021A671A6F42F00102A4
:1008FC001A67C5E7FFF73EFE0646074B1B6F13F062
:10090C00020F11D0FFF736FE801B41F2883398425C
:10091C00F3D9032069E000BF0038024000004742D1
:10092C00800E474200700040E5B9A369002B5BD0F4
:10093C00304A926802F00C02082A58D0022B17D0C9
:10094C002D4B00221A60FFF715FE0446294B1B683D
:10095C0013F0007F42D0FFF70DFE001B0228F5D9E3
:10096C00032042E0234A136C23F080531364DCE72A
:10097C00214B00221A60FFF7FDFD05461D4B1B683D
:10098C0013F0007F06D0FFF7F5FD401B0228F5D9C8
:10099C0003202AE0E369226A1343626A43EA821362
:1009AC00A26A5208013A43EA0243E26A43EA02634A
:1009BC00104A5360104B01221A60FFF7DBFD04460E
:1009CC000C4B1B6813F0007F06D1FFF7D3FD001B07
:1009DC000228F5D9032008E0002006E0002004E0FE
:1009EC0001207047012000E0002002B070BD012002
:1009FC00FBE700BF0038024060004742264B9B6873
:100A0C0003F00C03042B44D0082B01D0234870476F
:100A1C002DE9F04B204B5A6802F03F025B6813F44F
:100A2C00800F13D01C4B5968C1F3881100231C484C
:100A3C00A1FB0001FFF7D4FB174B5B68C3F3014329
:100A4C0001335B00B0FBF3F0BDE8F08B124B5B683D
:100A5C00C3F388131E4600275C010025E41A65EBDE
:100A6C000705A90141EA9461A001001B61EB050196
:100A7C00CB0043EA5073C400A01943EB07018B026F
:100A8C0043EA90538402204619460023FFF7A8FB43
:100A9C00D2E70348704700BF003802400024F4003E
:100AAC0040787D01002800F09D8070B504464F4BC6
:100ABC001B6803F00F038B4209D2CBB24B4A137065
:100ACC00136803F00F038B4201D0012070BD236823
:100ADC0013F0020F17D013F0040F04D0444A93689C
:100AEC0043F4E0539360236813F0080F04D0404A9A
:100AFC00936843F4604393603D4A936823F0F0039A
:100B0C00A068034393600D46236813F0010F32D0A5
:100B1C006368012B21D09A1E012A25D9344A126808
:100B2C0012F0020F60D032498A6822F0030213439C
:100B3C008B60FFF71FFD06462D4B9B6803F00C03E3
:100B4C006268B3EB820F16D0FFF714FD801B41F2E5
:100B5C0088339842F0D90320B8E7254A126812F47A
:100B6C00003FE0D10120B1E7214A126812F0007F6A
:100B7C00D9D10120AAE71D4B1B6803F00F03AB4230
:100B8C0009D9EAB2194B1A701B6803F00F03AB4278
:100B9C0001D001209AE7236813F0040F06D0144A01
:100BAC00936823F4E053E1680B439360236813F0DC
:100BBC00080F07D00E4A936823F46043216943EA77
:100BCC00C1039360FFF71AFF094B9B68C3F3031330
:100BDC00084AD35CD840084B18600020FFF780FC13
:100BEC00002073E70120704701206FE7003C0240B2
:100BFC0000380240E00F000838000020014B186854
:100C0C00704700BF38000020124B5A6A42F48072C1
:100C1C005A625A6A22F480725A62A3F58C33984253
:100C2C0006D00D4B984209D00C4B98420CD0704713
:100C3C00084A536C43F4807353647047054A536CF1
:100C4C0043F4007353647047024A536C43F480635B
:100C5C005364ECE7003802400021014000220140BF
:100C6C002AB3F0B4174600F13405C36A43EA0253C1
:100C7C00C362012300220FE0083D002210E0286827
:100C8C0003F18044013C51F8244002EB8206B4404D
:100C9C002043286001320133BB4206DC0D2BEBD024
:100CAC00072BECD1043D0022E9E7F0BC70477047FC
:100CBC0010B400F11004092902DD00F10C040A390A
:100CCC00236801EB410102FA01F1194321605DF83F
:100CDC00044B7047426083607047000082B0002371
:100CEC000193064B1A6B42F080021A631B6B03F0E4
:100CFC0080030193019B02B0704700BF0038024093
:100D0C00FEE7000000B595B000220192244B196C4F
:100D1C0041F0805119641B6C03F080530193019BCB
:100D2C00029220490B6823F4404343F480430B6048
:100D3C000B6803F440430293029B022308930123A4
:100D4C000B9310230C930E9208A8FFF78BFCF0B9B1
:100D5C000F2303930021049105910691079103A899
:100D6C00FFF7A0FEB8B9FFF749FF0F4BA3FB00300C
:100D7C008009FFF74BFC0420FFF75EFC00221146B4
:100D8C004FF0FF30FFF70EFC15B05DF804FB93211C
:100D9C000648FFF7B5FFA1210448FFF7B1FF00BFDC
:100DAC000038024000700040D34D6210F80F00086C
:100DBC0008B5FFF7B9FBFFF7A5FFFFF78FFF164C40
:100DCC002046FFF721FF0C2214492046FFF748FF6D
:100DDC00012211462046FFF76BFF00220621204618
:100DEC00FFF766FF06220A212046FFF761FF072264
:100DFC000E212046FFF75CFF094A40F6030320460C
:100E0C00FFF768FF236803F03F032360A36843F0F8
:100E1C008043A360FEE700BF0020014008000020D3
:100E2C000001000510B582B000240094214B5A6CCF
:100E3C0042F480425A645A6C02F480420092009A46
:100E4C0001941A6C42F080521A641B6C03F08053AC
:100E5C000193019B0320FFF793FB224621466FF081
:100E6C000B00FFF79FFB224621466FF00A00FFF7AD
:100E7C0099FB224621466FF00900FFF793FB2246AF
:100E8C0021466FF00400FFF78DFB224621466FF0E0
:100E9C000300FFF787FB224621466FF00100FFF7A6
:100EAC0081FB224621464FF0FF30FFF77BFB02B05F
:100EBC0010BD00BF003802407047FEE7FEE7FEE7BA
:100ECC00FEE770477047704708B5FFF747FBFFF721
:100EDC00C4FB08BD0F49D1F8883043F47003C1F846
:100EEC0088300D4B1A6842F001021A60002098609D
:100EFC001A6822F0847222F480321A60074A5A600F
:100F0C001A6822F480221A60D8604FF000638B605C
:100F1C00704700BF00ED00E00038024010300024A4
:100F2C00DFF834D0002103E00C4B5B584350043104
:100F3C000B480C4B42189A42F6D30B4A02E00023A2
:100F4C0042F8043B094B9A42F9D3FFF7C3FF00F078
:100F5C0011F8FFF72DFF7047000003201810000850
:100F6C00000000203C0000203C0000205C00002021
:100F7C00FEE7000070B50D4E0D4CA41BA41000250F
:100F8C00A54209D10B4E0C4C00F018F8A41BA41070
:100F9C000025A54205D170BD56F82530984701357E
:100FAC00EEE756F8253098470135F2E710100008A7
:100FBC00101000081010000814100008F8B500BF3D
:100FCC00F8BC08BC9E467047F8B500BFF8BC08BC1E
:040FDC009E46704776
:100FE00000000000000000000102030406070809D9
:100FF00000000000010203042E2E2F5372632F6D98
:0810000061696E2E630000001F
:0810080014F2FF7F010000005B
:04101000D101000802
:04101400AD01000822
:1010180001000000100000000100000006000000B0
:101028000A0000000E000000010000000600000099
:101038000A0000000E000000010000000600000089
:0C1048000A0000000E0000000024F4006C
:0400000508000F2DB3
:00000001FF
